:100000000C945A000C946E000C946C000C946C00D0
:100010000C946C000C946C000C946C000C946C00B0
:100020000C946C000C946C000C946C000C946C00A0
:100030000C946C000C946C000C946C000C946C0090
:100040000C946C000C946C000C946C000C946C0080
:100050000C946C000C946C000C946C000C946C0070
:100060000C946C000C946C000C946C000C946C0060
:100070000C946C000C946C000C946C000C946C0050
:100080000C946C000C946C000C946C000C946C0040
:100090000C946C000C946C000C946C000C946C0030
:1000A0000C946C000C946C000C946C000C946C0020
:1000B0000C946C0011241FBECFEFD8E0DEBFCDBF83
:1000C00021E0A0E0B1E001C01D92A330B207E1F74A
:1000D0000E9415010C9468010C9400001F920F926D
:1000E0000FB60F9211242F938F939F9381E08093EB
:1000F000000185B1816085B92FEF83ED90E3215038
:1001000080409040E1F700C0000085B18E7F85B946
:100110009F918F912F910F900FBE0F901F90189568
:100120008BED95E0909389008093880078948BB153
:1001300080618BB92FEF83ED90E321508040904098
:10014000E1F700C000008BB18F7E8BB9F8948091ED
:1001500000018093020110920001089583E991E16A
:10016000909389008093880078948BB188608BB9D4
:100170002FEF83ED90E3215080409040E1F700C0E5
:1001800000008BB1877F8BB9F89480910001809338
:10019000010110920001089587EB9BE09093890084
:1001A0008093880008958BB180618BB985B1886296
:1001B00085B92FEF8EE994E2215080409040E1F71D
:1001C00000C0000085B1837C85B98BB18F7E8BB96F
:1001D00008958BB188608BB985B1846185B92FEFA3
:1001E0008EE994E2215080409040E1F700C0000089
:1001F00085B1837C85B98BB1877F8BB908958BB12D
:1002000088618BB985B1846185B92FEF8DE399E45D
:10021000215080409040E1F700C0000085B1837C10
:1002200085B98BB1877E8BB90895E9E6F0E08081CE
:10023000826080838DB381608DBB88E18AB98EE353
:1002400084B9F894E0E8F0E0808182688083E1E896
:10025000F0E080818A6180838FE39CE9909387003E
:100260008093860087EB9BE09093890080938800C1
:1002700085B1846285B94A9BFBCF85B1837C85B902
:100280002FEF84E39CE0215080409040E1F700C0D4
:1002900000008CB381608CBB0E9490000E94AE0075
:1002A0000E94CC008091020190910101891741F0D8
:1002B000882319F00E94D300DBCF0E94E900D8CF39
:1002C000892319F00E94FF00D3CF0E94D300D0CF22
:0402D000F894FFCFD0
:00000001FF
